{"abi":[{"type":"constructor","inputs":[{"name":"priceFeed","type":"address","internalType":"address"}],"stateMutability":"nonpayable"},{"type":"fallback","stateMutability":"payable"},{"type":"receive","stateMutability":"payable"},{"type":"function","name":"MINIMUM_VALUE_USD","inputs":[],"outputs":[{"name":"","type":"uint256","internalType":"uint256"}],"stateMutability":"view"},{"type":"function","name":"fund","inputs":[],"outputs":[],"stateMutability":"payable"},{"type":"function","name":"getAddressOfFunder","inputs":[{"name":"index","type":"uint256","internalType":"uint256"}],"outputs":[{"name":"","type":"address","internalType":"address"}],"stateMutability":"view"},{"type":"function","name":"getAddressToAmountSent","inputs":[{"name":"fundingAddress","type":"address","internalType":"address"}],"outputs":[{"name":"","type":"uint256","internalType":"uint256"}],"stateMutability":"view"},{"type":"function","name":"getFundersCount","inputs":[],"outputs":[{"name":"","type":"uint256","internalType":"uint256"}],"stateMutability":"view"},{"type":"function","name":"getLatestFunder","inputs":[],"outputs":[{"name":"","type":"address","internalType":"address"}],"stateMutability":"view"},{"type":"function","name":"getOwner","inputs":[],"outputs":[{"name":"","type":"address","internalType":"address"}],"stateMutability":"view"},{"type":"function","name":"withdraw","inputs":[],"outputs":[],"stateMutability":"nonpayable"},{"type":"event","name":"Funded","inputs":[{"name":"funder","type":"address","indexed":true,"internalType":"address"},{"name":"amount","type":"uint256","indexed":false,"internalType":"uint256"}],"anonymous":false},{"type":"error","name":"fundMe__NotEnoughEthSent","inputs":[]},{"type":"error","name":"fundMe__NotOwner","inputs":[]},{"type":"error","name":"fundMe__WithdrawFailed","inputs":[]}],"bytecode":{"object":"0x60a060405234801561000f575f80fd5b50604051610cac380380610cac83398181016040528101906100319190610109565b3373ffffffffffffffffffffffffffffffffffffffff1660808173ffffffffffffffffffffffffffffffffffffffff16815250508060025f6101000a81548173ffffffffffffffffffffffffffffffffffffffff021916908373ffffffffffffffffffffffffffffffffffffffff16021790555050610134565b5f80fd5b5f73ffffffffffffffffffffffffffffffffffffffff82169050919050565b5f6100d8826100af565b9050919050565b6100e8816100ce565b81146100f2575f80fd5b50565b5f81519050610103816100df565b92915050565b5f6020828403121561011e5761011d6100ab565b5b5f61012b848285016100f5565b91505092915050565b608051610b596101535f395f81816103b401526105ce0152610b595ff3fe60806040526004361061007e575f3560e01c8063920b3a7e1161004d578063920b3a7e1461013d578063affe8d5e14610167578063b60d428814610191578063f99dabd21461019b5761008d565b8063180aba09146100975780633ccfd60b146100c15780633e052474146100d7578063893d20e8146101135761008d565b3661008d5761008b6101d7565b005b6100956101d7565b005b3480156100a2575f80fd5b506100ab61034e565b6040516100b8919061078f565b60405180910390f35b3480156100cc575f80fd5b506100d56103b2565b005b3480156100e2575f80fd5b506100fd60048036038101906100f891906107d6565b610585565b60405161010a9190610819565b60405180910390f35b34801561011e575f80fd5b506101276105cb565b604051610134919061078f565b60405180910390f35b348015610148575f80fd5b506101516105f2565b60405161015e9190610819565b60405180910390f35b348015610172575f80fd5b5061017b6105fd565b6040516101889190610819565b60405180910390f35b6101996101d7565b005b3480156101a6575f80fd5b506101c160048036038101906101bc919061085c565b610609565b6040516101ce919061078f565b60405180910390f35b674563918244f4000061021460025f9054906101000a900473ffffffffffffffffffffffffffffffffffffffff163461064c90919063ffffffff16565b101561024c576040517f1c5d9d6b00000000000000000000000000000000000000000000000000000000815260040160405180910390fd5b5f33908060018154018082558091505060019003905f5260205f20015f9091909190916101000a81548173ffffffffffffffffffffffffffffffffffffffff021916908373ffffffffffffffffffffffffffffffffffffffff1602179055503460015f3373ffffffffffffffffffffffffffffffffffffffff1673ffffffffffffffffffffffffffffffffffffffff1681526020019081526020015f205f8282546102f791906108b4565b925050819055503373ffffffffffffffffffffffffffffffffffffffff167f5af8184bef8e4b45eb9f6ed7734d04da38ced226495548f46e0c8ff8d7d9a524346040516103449190610819565b60405180910390a2565b5f805f8054905090505f81146103aa575f60018261036c91906108e7565b8154811061037d5761037c61091a565b5b905f5260205f20015f9054906101000a900473ffffffffffffffffffffffffffffffffffffffff166103ac565b5f5b91505090565b7f000000000000000000000000000000000000000000000000000000000000000073ffffffffffffffffffffffffffffffffffffffff163373ffffffffffffffffffffffffffffffffffffffff1614610437576040517f73525c0400000000000000000000000000000000000000000000000000000000815260040160405180910390fd5b5f808054905090505f5b818110156104d5575f80828154811061045d5761045c61091a565b5b905f5260205f20015f9054906101000a900473ffffffffffffffffffffffffffffffffffffffff1690505f60015f8373ffffffffffffffffffffffffffffffffffffffff1673ffffffffffffffffffffffffffffffffffffffff1681526020019081526020015f208190555050806001019050610441565b505f806104e29190610717565b5f3373ffffffffffffffffffffffffffffffffffffffff164760405161050790610974565b5f6040518083038185875af1925050503d805f8114610541576040519150601f19603f3d011682016040523d82523d5f602084013e610546565b606091505b5050905080610581576040517f04d43b2800000000000000000000000000000000000000000000000000000000815260040160405180910390fd5b5050565b5f60015f8373ffffffffffffffffffffffffffffffffffffffff1673ffffffffffffffffffffffffffffffffffffffff1681526020019081526020015f20549050919050565b5f7f0000000000000000000000000000000000000000000000000000000000000000905090565b5f8080549050905090565b674563918244f4000081565b5f80828154811061061d5761061c61091a565b5b905f5260205f20015f9054906101000a900473ffffffffffffffffffffffffffffffffffffffff169050919050565b5f8061065783610686565b90505f670de0b6b3a7640000858361066f9190610988565b61067991906109f6565b9050809250505092915050565b5f808273ffffffffffffffffffffffffffffffffffffffff1663feaf968c6040518163ffffffff1660e01b815260040160a060405180830381865afa1580156106d1573d5f803e3d5ffd5b505050506040513d601f19601f820116820180604052508101906106f59190610aac565b505050915050670de0b6b3a76400008161070f9190610988565b915050919050565b5080545f8255905f5260205f20908101906107329190610735565b50565b5b8082111561074c575f815f905550600101610736565b5090565b5f73ffffffffffffffffffffffffffffffffffffffff82169050919050565b5f61077982610750565b9050919050565b6107898161076f565b82525050565b5f6020820190506107a25f830184610780565b92915050565b5f80fd5b6107b58161076f565b81146107bf575f80fd5b50565b5f813590506107d0816107ac565b92915050565b5f602082840312156107eb576107ea6107a8565b5b5f6107f8848285016107c2565b91505092915050565b5f819050919050565b61081381610801565b82525050565b5f60208201905061082c5f83018461080a565b92915050565b61083b81610801565b8114610845575f80fd5b50565b5f8135905061085681610832565b92915050565b5f60208284031215610871576108706107a8565b5b5f61087e84828501610848565b91505092915050565b7f4e487b71000000000000000000000000000000000000000000000000000000005f52601160045260245ffd5b5f6108be82610801565b91506108c983610801565b92508282019050808211156108e1576108e0610887565b5b92915050565b5f6108f182610801565b91506108fc83610801565b925082820390508181111561091457610913610887565b5b92915050565b7f4e487b71000000000000000000000000000000000000000000000000000000005f52603260045260245ffd5b5f81905092915050565b50565b5f61095f5f83610947565b915061096a82610951565b5f82019050919050565b5f61097e82610954565b9150819050919050565b5f61099282610801565b915061099d83610801565b92508282026109ab81610801565b915082820484148315176109c2576109c1610887565b5b5092915050565b7f4e487b71000000000000000000000000000000000000000000000000000000005f52601260045260245ffd5b5f610a0082610801565b9150610a0b83610801565b925082610a1b57610a1a6109c9565b5b828204905092915050565b5f69ffffffffffffffffffff82169050919050565b610a4481610a26565b8114610a4e575f80fd5b50565b5f81519050610a5f81610a3b565b92915050565b5f819050919050565b610a7781610a65565b8114610a81575f80fd5b50565b5f81519050610a9281610a6e565b92915050565b5f81519050610aa681610832565b92915050565b5f805f805f60a08688031215610ac557610ac46107a8565b5b5f610ad288828901610a51565b9550506020610ae388828901610a84565b9450506040610af488828901610a98565b9350506060610b0588828901610a98565b9250506080610b1688828901610a51565b915050929550929590935056fea2646970667358221220473d1a427dc10df46f269b2a6bda466010a7648c26796f2f56ffe3e974f36efb64736f6c63430008180033","linkReferences":{}},"methodIdentifiers":{"MINIMUM_VALUE_USD()":"affe8d5e","fund()":"b60d4288","getAddressOfFunder(uint256)":"f99dabd2","getAddressToAmountSent(address)":"3e052474","getFundersCount()":"920b3a7e","getLatestFunder()":"180aba09","getOwner()":"893d20e8","withdraw()":"3ccfd60b"},"id":27}