{"abi":[{"type":"constructor","inputs":[{"name":"priceFeed","type":"address","internalType":"address"}],"stateMutability":"nonpayable"},{"type":"fallback","stateMutability":"payable"},{"type":"receive","stateMutability":"payable"},{"type":"function","name":"MINIMUM_VALUE_USD","inputs":[],"outputs":[{"name":"","type":"uint256","internalType":"uint256"}],"stateMutability":"view"},{"type":"function","name":"getAddressOfFunder","inputs":[{"name":"index","type":"uint256","internalType":"uint256"}],"outputs":[{"name":"","type":"address","internalType":"address"}],"stateMutability":"view"},{"type":"function","name":"getAddressToAmountToAmountSent","inputs":[{"name":"fundingAddress","type":"address","internalType":"address"}],"outputs":[{"name":"","type":"uint256","internalType":"uint256"}],"stateMutability":"view"},{"type":"function","name":"getFunds","inputs":[],"outputs":[],"stateMutability":"payable"},{"type":"function","name":"getOwner","inputs":[],"outputs":[{"name":"","type":"address","internalType":"address"}],"stateMutability":"view"},{"type":"function","name":"withdraw","inputs":[],"outputs":[],"stateMutability":"nonpayable"},{"type":"error","name":"fundMe__notOwner","inputs":[]}],"bytecode":{"object":"0x60a060405234801561000f575f80fd5b50604051610ddb380380610ddb83398181016040528101906100319190610109565b3373ffffffffffffffffffffffffffffffffffffffff1660808173ffffffffffffffffffffffffffffffffffffffff16815250508060035f6101000a81548173ffffffffffffffffffffffffffffffffffffffff021916908373ffffffffffffffffffffffffffffffffffffffff16021790555050610134565b5f80fd5b5f73ffffffffffffffffffffffffffffffffffffffff82169050919050565b5f6100d8826100af565b9050919050565b6100e8816100ce565b81146100f2575f80fd5b50565b5f81519050610103816100df565b92915050565b5f6020828403121561011e5761011d6100ab565b5b5f61012b848285016100f5565b91505092915050565b608051610c886101535f395f81816102c901526105110152610c885ff3fe608060405260043610610058575f3560e01c80633ccfd60b146100715780634d9b373514610087578063893d20e814610091578063affe8d5e146100bb578063e043ede9146100e5578063f99dabd21461012157610067565b366100675761006561015d565b005b61006f61015d565b005b34801561007c575f80fd5b506100856102c7565b005b61008f61015d565b005b34801561009c575f80fd5b506100a561050e565b6040516100b29190610777565b60405180910390f35b3480156100c6575f80fd5b506100cf610535565b6040516100dc91906107a8565b60405180910390f35b3480156100f0575f80fd5b5061010b600480360381019061010691906107ef565b610541565b60405161011891906107a8565b60405180910390f35b34801561012c575f80fd5b5061014760048036038101906101429190610844565b610587565b6040516101549190610777565b60405180910390f35b674563918244f4000061019a60035f9054906101000a900473ffffffffffffffffffffffffffffffffffffffff16346105cb90919063ffffffff16565b10156101db576040517f08c379a00000000000000000000000000000000000000000000000000000000081526004016101d2906108ef565b60405180910390fd5b600133908060018154018082558091505060019003905f5260205f20015f9091909190916101000a81548173ffffffffffffffffffffffffffffffffffffffff021916908373ffffffffffffffffffffffffffffffffffffffff1602179055503460025f3373ffffffffffffffffffffffffffffffffffffffff1673ffffffffffffffffffffffffffffffffffffffff1681526020019081526020015f2054610284919061093a565b60025f3373ffffffffffffffffffffffffffffffffffffffff1673ffffffffffffffffffffffffffffffffffffffff1681526020019081526020015f2081905550565b7f000000000000000000000000000000000000000000000000000000000000000073ffffffffffffffffffffffffffffffffffffffff163373ffffffffffffffffffffffffffffffffffffffff161461034c576040517f6282507000000000000000000000000000000000000000000000000000000000815260040160405180910390fd5b5f60018054905090505f80819055505b805f541015610403575f60015f548154811061037b5761037a61096d565b5b905f5260205f20015f9054906101000a900473ffffffffffffffffffffffffffffffffffffffff1690505f60025f8373ffffffffffffffffffffffffffffffffffffffff1673ffffffffffffffffffffffffffffffffffffffff1681526020019081526020015f2081905550505f808154809291906103f99061099a565b919050555061035c565b5f67ffffffffffffffff81111561041d5761041c6109e1565b5b60405190808252806020026020018201604052801561044b5781602001602082028036833780820191505090505b5060019080519060200190610461929190610696565b505f3373ffffffffffffffffffffffffffffffffffffffff164760405161048790610a3b565b5f6040518083038185875af1925050503d805f81146104c1576040519150601f19603f3d011682016040523d82523d5f602084013e6104c6565b606091505b505090508061050a576040517f08c379a000000000000000000000000000000000000000000000000000000000815260040161050190610a99565b60405180910390fd5b5050565b5f7f0000000000000000000000000000000000000000000000000000000000000000905090565b674563918244f4000081565b5f60025f8373ffffffffffffffffffffffffffffffffffffffff1673ffffffffffffffffffffffffffffffffffffffff1681526020019081526020015f20549050919050565b5f6001828154811061059c5761059b61096d565b5b905f5260205f20015f9054906101000a900473ffffffffffffffffffffffffffffffffffffffff169050919050565b5f806105d683610605565b90505f670de0b6b3a764000085836105ee9190610ab7565b6105f89190610b25565b9050809250505092915050565b5f808273ffffffffffffffffffffffffffffffffffffffff1663feaf968c6040518163ffffffff1660e01b815260040160a060405180830381865afa158015610650573d5f803e3d5ffd5b505050506040513d601f19601f820116820180604052508101906106749190610bdb565b505050915050670de0b6b3a76400008161068e9190610ab7565b915050919050565b828054828255905f5260205f2090810192821561070c579160200282015b8281111561070b578251825f6101000a81548173ffffffffffffffffffffffffffffffffffffffff021916908373ffffffffffffffffffffffffffffffffffffffff160217905550916020019190600101906106b4565b5b509050610719919061071d565b5090565b5b80821115610734575f815f90555060010161071e565b5090565b5f73ffffffffffffffffffffffffffffffffffffffff82169050919050565b5f61076182610738565b9050919050565b61077181610757565b82525050565b5f60208201905061078a5f830184610768565b92915050565b5f819050919050565b6107a281610790565b82525050565b5f6020820190506107bb5f830184610799565b92915050565b5f80fd5b6107ce81610757565b81146107d8575f80fd5b50565b5f813590506107e9816107c5565b92915050565b5f60208284031215610804576108036107c1565b5b5f610811848285016107db565b91505092915050565b61082381610790565b811461082d575f80fd5b50565b5f8135905061083e8161081a565b92915050565b5f60208284031215610859576108586107c1565b5b5f61086684828501610830565b91505092915050565b5f82825260208201905092915050565b7f4966207468652076616c7565206973206c657373207468616e207265717569725f8201527f6564207468656e20706f702074686973206d6573736167650000000000000000602082015250565b5f6108d960388361086f565b91506108e48261087f565b604082019050919050565b5f6020820190508181035f830152610906816108cd565b9050919050565b7f4e487b71000000000000000000000000000000000000000000000000000000005f52601160045260245ffd5b5f61094482610790565b915061094f83610790565b92508282019050808211156109675761096661090d565b5b92915050565b7f4e487b71000000000000000000000000000000000000000000000000000000005f52603260045260245ffd5b5f6109a482610790565b91507fffffffffffffffffffffffffffffffffffffffffffffffffffffffffffffffff82036109d6576109d561090d565b5b600182019050919050565b7f4e487b71000000000000000000000000000000000000000000000000000000005f52604160045260245ffd5b5f81905092915050565b50565b5f610a265f83610a0e565b9150610a3182610a18565b5f82019050919050565b5f610a4582610a1b565b9150819050919050565b7f43616c6c206661696c65640000000000000000000000000000000000000000005f82015250565b5f610a83600b8361086f565b9150610a8e82610a4f565b602082019050919050565b5f6020820190508181035f830152610ab081610a77565b9050919050565b5f610ac182610790565b9150610acc83610790565b9250828202610ada81610790565b91508282048414831517610af157610af061090d565b5b5092915050565b7f4e487b71000000000000000000000000000000000000000000000000000000005f52601260045260245ffd5b5f610b2f82610790565b9150610b3a83610790565b925082610b4a57610b49610af8565b5b828204905092915050565b5f69ffffffffffffffffffff82169050919050565b610b7381610b55565b8114610b7d575f80fd5b50565b5f81519050610b8e81610b6a565b92915050565b5f819050919050565b610ba681610b94565b8114610bb0575f80fd5b50565b5f81519050610bc181610b9d565b92915050565b5f81519050610bd58161081a565b92915050565b5f805f805f60a08688031215610bf457610bf36107c1565b5b5f610c0188828901610b80565b9550506020610c1288828901610bb3565b9450506040610c2388828901610bc7565b9350506060610c3488828901610bc7565b9250506080610c4588828901610b80565b915050929550929590935056fea2646970667358221220716570030430be2623cfe11301325002fe345798e3fae0e8e6da16d738ac3e5464736f6c63430008180033","linkReferences":{}},"methodIdentifiers":{"MINIMUM_VALUE_USD()":"affe8d5e","getAddressOfFunder(uint256)":"f99dabd2","getAddressToAmountToAmountSent(address)":"e043ede9","getFunds()":"4d9b3735","getOwner()":"893d20e8","withdraw()":"3ccfd60b"},"id":19}