{"abi":[{"type":"constructor","inputs":[{"name":"priceFeed","type":"address","internalType":"address"}],"stateMutability":"nonpayable"},{"type":"fallback","stateMutability":"payable"},{"type":"receive","stateMutability":"payable"},{"type":"function","name":"MINIMUM_VALUE_USD","inputs":[],"outputs":[{"name":"","type":"uint256","internalType":"uint256"}],"stateMutability":"view"},{"type":"function","name":"fund","inputs":[],"outputs":[],"stateMutability":"payable"},{"type":"function","name":"getAddressOfFunder","inputs":[{"name":"index","type":"uint256","internalType":"uint256"}],"outputs":[{"name":"","type":"address","internalType":"address"}],"stateMutability":"view"},{"type":"function","name":"getAddressToAmountToAmountSent","inputs":[{"name":"fundingAddress","type":"address","internalType":"address"}],"outputs":[{"name":"","type":"uint256","internalType":"uint256"}],"stateMutability":"view"},{"type":"function","name":"getFundersCount","inputs":[],"outputs":[{"name":"","type":"uint256","internalType":"uint256"}],"stateMutability":"view"},{"type":"function","name":"getLatestFunder","inputs":[],"outputs":[{"name":"","type":"address","internalType":"address"}],"stateMutability":"view"},{"type":"function","name":"getOwner","inputs":[],"outputs":[{"name":"","type":"address","internalType":"address"}],"stateMutability":"view"},{"type":"function","name":"withdraw","inputs":[],"outputs":[],"stateMutability":"nonpayable"},{"type":"event","name":"Funded","inputs":[{"name":"funder","type":"address","indexed":true,"internalType":"address"},{"name":"amount","type":"uint256","indexed":false,"internalType":"uint256"}],"anonymous":false},{"type":"error","name":"fundMe__NotEnoughEthSent","inputs":[]},{"type":"error","name":"fundMe__NotOwner","inputs":[]},{"type":"error","name":"fundMe__WithdrawFailed","inputs":[]}],"bytecode":{"object":"0x60a060405234801561000f575f80fd5b50604051610cb3380380610cb383398181016040528101906100319190610109565b3373ffffffffffffffffffffffffffffffffffffffff1660808173ffffffffffffffffffffffffffffffffffffffff16815250508060035f6101000a81548173ffffffffffffffffffffffffffffffffffffffff021916908373ffffffffffffffffffffffffffffffffffffffff16021790555050610134565b5f80fd5b5f73ffffffffffffffffffffffffffffffffffffffff82169050919050565b5f6100d8826100af565b9050919050565b6100e8816100ce565b81146100f2575f80fd5b50565b5f81519050610103816100df565b92915050565b5f6020828403121561011e5761011d6100ab565b5b5f61012b848285016100f5565b91505092915050565b608051610b606101535f395f81816103b6015261058d0152610b605ff3fe60806040526004361061007e575f3560e01c8063affe8d5e1161004d578063affe8d5e1461012b578063b60d428814610155578063e043ede91461015f578063f99dabd21461019b5761008d565b8063180aba09146100975780633ccfd60b146100c1578063893d20e8146100d7578063920b3a7e146101015761008d565b3661008d5761008b6101d7565b005b6100956101d7565b005b3480156100a2575f80fd5b506100ab61034f565b6040516100b89190610796565b60405180910390f35b3480156100cc575f80fd5b506100d56103b4565b005b3480156100e2575f80fd5b506100eb61058a565b6040516100f89190610796565b60405180910390f35b34801561010c575f80fd5b506101156105b1565b60405161012291906107c7565b60405180910390f35b348015610136575f80fd5b5061013f6105bd565b60405161014c91906107c7565b60405180910390f35b61015d6101d7565b005b34801561016a575f80fd5b506101856004803603810190610180919061080e565b6105c9565b60405161019291906107c7565b60405180910390f35b3480156101a6575f80fd5b506101c160048036038101906101bc9190610863565b61060f565b6040516101ce9190610796565b60405180910390f35b674563918244f4000061021460035f9054906101000a900473ffffffffffffffffffffffffffffffffffffffff163461065390919063ffffffff16565b101561024c576040517f1c5d9d6b00000000000000000000000000000000000000000000000000000000815260040160405180910390fd5b600133908060018154018082558091505060019003905f5260205f20015f9091909190916101000a81548173ffffffffffffffffffffffffffffffffffffffff021916908373ffffffffffffffffffffffffffffffffffffffff1602179055503460025f3373ffffffffffffffffffffffffffffffffffffffff1673ffffffffffffffffffffffffffffffffffffffff1681526020019081526020015f205f8282546102f891906108bb565b925050819055503373ffffffffffffffffffffffffffffffffffffffff167f5af8184bef8e4b45eb9f6ed7734d04da38ced226495548f46e0c8ff8d7d9a5243460405161034591906107c7565b60405180910390a2565b5f8060018054905090505f81146103ac576001808261036e91906108ee565b8154811061037f5761037e610921565b5b905f5260205f20015f9054906101000a900473ffffffffffffffffffffffffffffffffffffffff166103ae565b5f5b91505090565b7f000000000000000000000000000000000000000000000000000000000000000073ffffffffffffffffffffffffffffffffffffffff163373ffffffffffffffffffffffffffffffffffffffff1614610439576040517f73525c0400000000000000000000000000000000000000000000000000000000815260040160405180910390fd5b5f60018054905090505f5b818110156104d9575f6001828154811061046157610460610921565b5b905f5260205f20015f9054906101000a900473ffffffffffffffffffffffffffffffffffffffff1690505f60025f8373ffffffffffffffffffffffffffffffffffffffff1673ffffffffffffffffffffffffffffffffffffffff1681526020019081526020015f208190555050806001019050610444565b5060015f6104e7919061071e565b5f3373ffffffffffffffffffffffffffffffffffffffff164760405161050c9061097b565b5f6040518083038185875af1925050503d805f8114610546576040519150601f19603f3d011682016040523d82523d5f602084013e61054b565b606091505b5050905080610586576040517f04d43b2800000000000000000000000000000000000000000000000000000000815260040160405180910390fd5b5050565b5f7f0000000000000000000000000000000000000000000000000000000000000000905090565b5f600180549050905090565b674563918244f4000081565b5f60025f8373ffffffffffffffffffffffffffffffffffffffff1673ffffffffffffffffffffffffffffffffffffffff1681526020019081526020015f20549050919050565b5f6001828154811061062457610623610921565b5b905f5260205f20015f9054906101000a900473ffffffffffffffffffffffffffffffffffffffff169050919050565b5f8061065e8361068d565b90505f670de0b6b3a76400008583610676919061098f565b61068091906109fd565b9050809250505092915050565b5f808273ffffffffffffffffffffffffffffffffffffffff1663feaf968c6040518163ffffffff1660e01b815260040160a060405180830381865afa1580156106d8573d5f803e3d5ffd5b505050506040513d601f19601f820116820180604052508101906106fc9190610ab3565b505050915050670de0b6b3a764000081610716919061098f565b915050919050565b5080545f8255905f5260205f2090810190610739919061073c565b50565b5b80821115610753575f815f90555060010161073d565b5090565b5f73ffffffffffffffffffffffffffffffffffffffff82169050919050565b5f61078082610757565b9050919050565b61079081610776565b82525050565b5f6020820190506107a95f830184610787565b92915050565b5f819050919050565b6107c1816107af565b82525050565b5f6020820190506107da5f8301846107b8565b92915050565b5f80fd5b6107ed81610776565b81146107f7575f80fd5b50565b5f81359050610808816107e4565b92915050565b5f60208284031215610823576108226107e0565b5b5f610830848285016107fa565b91505092915050565b610842816107af565b811461084c575f80fd5b50565b5f8135905061085d81610839565b92915050565b5f60208284031215610878576108776107e0565b5b5f6108858482850161084f565b91505092915050565b7f4e487b71000000000000000000000000000000000000000000000000000000005f52601160045260245ffd5b5f6108c5826107af565b91506108d0836107af565b92508282019050808211156108e8576108e761088e565b5b92915050565b5f6108f8826107af565b9150610903836107af565b925082820390508181111561091b5761091a61088e565b5b92915050565b7f4e487b71000000000000000000000000000000000000000000000000000000005f52603260045260245ffd5b5f81905092915050565b50565b5f6109665f8361094e565b915061097182610958565b5f82019050919050565b5f6109858261095b565b9150819050919050565b5f610999826107af565b91506109a4836107af565b92508282026109b2816107af565b915082820484148315176109c9576109c861088e565b5b5092915050565b7f4e487b71000000000000000000000000000000000000000000000000000000005f52601260045260245ffd5b5f610a07826107af565b9150610a12836107af565b925082610a2257610a216109d0565b5b828204905092915050565b5f69ffffffffffffffffffff82169050919050565b610a4b81610a2d565b8114610a55575f80fd5b50565b5f81519050610a6681610a42565b92915050565b5f819050919050565b610a7e81610a6c565b8114610a88575f80fd5b50565b5f81519050610a9981610a75565b92915050565b5f81519050610aad81610839565b92915050565b5f805f805f60a08688031215610acc57610acb6107e0565b5b5f610ad988828901610a58565b9550506020610aea88828901610a8b565b9450506040610afb88828901610a9f565b9350506060610b0c88828901610a9f565b9250506080610b1d88828901610a58565b915050929550929590935056fea26469706673582212200def245fa2c7496f2fa51825f1a90eda2baf410eeb2c493dd82c49a4426d997264736f6c63430008180033","linkReferences":{}},"methodIdentifiers":{"MINIMUM_VALUE_USD()":"affe8d5e","fund()":"b60d4288","getAddressOfFunder(uint256)":"f99dabd2","getAddressToAmountToAmountSent(address)":"e043ede9","getFundersCount()":"920b3a7e","getLatestFunder()":"180aba09","getOwner()":"893d20e8","withdraw()":"3ccfd60b"},"id":27}