{"abi":[{"type":"constructor","inputs":[{"name":"_decimals","type":"uint8","internalType":"uint8"},{"name":"_initialAnswer","type":"int256","internalType":"int256"}],"stateMutability":"nonpayable"},{"type":"function","name":"decimals","inputs":[],"outputs":[{"name":"","type":"uint8","internalType":"uint8"}],"stateMutability":"view"},{"type":"function","name":"description","inputs":[],"outputs":[{"name":"","type":"string","internalType":"string"}],"stateMutability":"pure"},{"type":"function","name":"getAnswer","inputs":[{"name":"","type":"uint256","internalType":"uint256"}],"outputs":[{"name":"","type":"int256","internalType":"int256"}],"stateMutability":"view"},{"type":"function","name":"getRoundData","inputs":[{"name":"_roundId","type":"uint80","internalType":"uint80"}],"outputs":[{"name":"roundId","type":"uint80","internalType":"uint80"},{"name":"answer","type":"int256","internalType":"int256"},{"name":"startedAt","type":"uint256","internalType":"uint256"},{"name":"updatedAt","type":"uint256","internalType":"uint256"},{"name":"answeredInRound","type":"uint80","internalType":"uint80"}],"stateMutability":"view"},{"type":"function","name":"getTimestamp","inputs":[{"name":"","type":"uint256","internalType":"uint256"}],"outputs":[{"name":"","type":"uint256","internalType":"uint256"}],"stateMutability":"view"},{"type":"function","name":"latestAnswer","inputs":[],"outputs":[{"name":"","type":"int256","internalType":"int256"}],"stateMutability":"view"},{"type":"function","name":"latestRound","inputs":[],"outputs":[{"name":"","type":"uint256","internalType":"uint256"}],"stateMutability":"view"},{"type":"function","name":"latestRoundData","inputs":[],"outputs":[{"name":"roundId","type":"uint80","internalType":"uint80"},{"name":"answer","type":"int256","internalType":"int256"},{"name":"startedAt","type":"uint256","internalType":"uint256"},{"name":"updatedAt","type":"uint256","internalType":"uint256"},{"name":"answeredInRound","type":"uint80","internalType":"uint80"}],"stateMutability":"view"},{"type":"function","name":"latestTimestamp","inputs":[],"outputs":[{"name":"","type":"uint256","internalType":"uint256"}],"stateMutability":"view"},{"type":"function","name":"updateAnswer","inputs":[{"name":"_answer","type":"int256","internalType":"int256"}],"outputs":[],"stateMutability":"nonpayable"},{"type":"function","name":"updateRoundData","inputs":[{"name":"_roundId","type":"uint80","internalType":"uint80"},{"name":"_answer","type":"int256","internalType":"int256"},{"name":"_timestamp","type":"uint256","internalType":"uint256"},{"name":"_startedAt","type":"uint256","internalType":"uint256"}],"outputs":[],"stateMutability":"nonpayable"},{"type":"function","name":"version","inputs":[],"outputs":[{"name":"","type":"uint256","internalType":"uint256"}],"stateMutability":"view"}],"bytecode":{"object":"0x608060405234801561000f575f80fd5b5060405162000a6538038062000a658339818101604052810190610033919061013f565b815f806101000a81548160ff021916908360ff16021790555061005b8161006260201b60201c565b50506101fa565b806001819055504260028190555060035f815480929190610082906101b3565b91905055508060045f60035481526020019081526020015f20819055504260055f60035481526020019081526020015f20819055504260065f60035481526020019081526020015f208190555050565b5f80fd5b5f60ff82169050919050565b6100eb816100d6565b81146100f5575f80fd5b50565b5f81519050610106816100e2565b92915050565b5f819050919050565b61011e8161010c565b8114610128575f80fd5b50565b5f8151905061013981610115565b92915050565b5f8060408385031215610155576101546100d2565b5b5f610162858286016100f8565b92505060206101738582860161012b565b9150509250929050565b7f4e487b71000000000000000000000000000000000000000000000000000000005f52601160045260245ffd5b5f819050919050565b5f6101bd826101aa565b91507fffffffffffffffffffffffffffffffffffffffffffffffffffffffffffffffff82036101ef576101ee61017d565b5b600182019050919050565b61085d80620002085f395ff3fe608060405234801561000f575f80fd5b50600436106100b2575f3560e01c80638205bf6a1161006f5780638205bf6a146101685780639a6fc8f514610186578063a87a20ce146101ba578063b5ab58dc146101d6578063b633620c14610206578063feaf968c14610236576100b2565b8063313ce567146100b65780634aa2011f146100d457806350d25bcd146100f057806354fd4d501461010e578063668a0f021461012c5780637284e4161461014a575b5f80fd5b6100be610258565b6040516100cb919061048f565b60405180910390f35b6100ee60048036038101906100e99190610551565b610268565b005b6100f86102d7565b60405161010591906105c4565b60405180910390f35b6101166102dd565b60405161012391906105ec565b60405180910390f35b6101346102e2565b60405161014191906105ec565b60405180910390f35b6101526102e8565b60405161015f919061068f565b60405180910390f35b610170610308565b60405161017d91906105ec565b60405180910390f35b6101a0600480360381019061019b91906106af565b61030e565b6040516101b19594939291906106e9565b60405180910390f35b6101d460048036038101906101cf919061073a565b610382565b005b6101f060048036038101906101eb9190610765565b6103f2565b6040516101fd91906105c4565b60405180910390f35b610220600480360381019061021b9190610765565b610407565b60405161022d91906105ec565b60405180910390f35b61023e61041c565b60405161024f9594939291906106e9565b60405180910390f35b5f8054906101000a900460ff1681565b8369ffffffffffffffffffff1660038190555082600181905550816002819055508260045f60035481526020019081526020015f20819055508160055f60035481526020019081526020015f20819055508060065f60035481526020019081526020015f208190555050505050565b60015481565b600481565b60035481565b606060405180606001604052806023815260200161080560239139905090565b60025481565b5f805f805f8560045f8869ffffffffffffffffffff1681526020019081526020015f205460065f8969ffffffffffffffffffff1681526020019081526020015f205460055f8a69ffffffffffffffffffff1681526020019081526020015f2054899450945094509450945091939590929450565b806001819055504260028190555060035f8154809291906103a2906107bd565b91905055508060045f60035481526020019081526020015f20819055504260055f60035481526020019081526020015f20819055504260065f60035481526020019081526020015f208190555050565b6004602052805f5260405f205f915090505481565b6005602052805f5260405f205f915090505481565b5f805f805f60035460045f60035481526020019081526020015f205460065f60035481526020019081526020015f205460055f60035481526020019081526020015f2054600354945094509450945094509091929394565b5f60ff82169050919050565b61048981610474565b82525050565b5f6020820190506104a25f830184610480565b92915050565b5f80fd5b5f69ffffffffffffffffffff82169050919050565b6104ca816104ac565b81146104d4575f80fd5b50565b5f813590506104e5816104c1565b92915050565b5f819050919050565b6104fd816104eb565b8114610507575f80fd5b50565b5f81359050610518816104f4565b92915050565b5f819050919050565b6105308161051e565b811461053a575f80fd5b50565b5f8135905061054b81610527565b92915050565b5f805f8060808587031215610569576105686104a8565b5b5f610576878288016104d7565b94505060206105878782880161050a565b93505060406105988782880161053d565b92505060606105a98782880161053d565b91505092959194509250565b6105be816104eb565b82525050565b5f6020820190506105d75f8301846105b5565b92915050565b6105e68161051e565b82525050565b5f6020820190506105ff5f8301846105dd565b92915050565b5f81519050919050565b5f82825260208201905092915050565b5f5b8381101561063c578082015181840152602081019050610621565b5f8484015250505050565b5f601f19601f8301169050919050565b5f61066182610605565b61066b818561060f565b935061067b81856020860161061f565b61068481610647565b840191505092915050565b5f6020820190508181035f8301526106a78184610657565b905092915050565b5f602082840312156106c4576106c36104a8565b5b5f6106d1848285016104d7565b91505092915050565b6106e3816104ac565b82525050565b5f60a0820190506106fc5f8301886106da565b61070960208301876105b5565b61071660408301866105dd565b61072360608301856105dd565b61073060808301846106da565b9695505050505050565b5f6020828403121561074f5761074e6104a8565b5b5f61075c8482850161050a565b91505092915050565b5f6020828403121561077a576107796104a8565b5b5f6107878482850161053d565b91505092915050565b7f4e487b71000000000000000000000000000000000000000000000000000000005f52601160045260245ffd5b5f6107c78261051e565b91507fffffffffffffffffffffffffffffffffffffffffffffffffffffffffffffffff82036107f9576107f8610790565b5b60018201905091905056fe76302e362f746573742f6d6f636b2f4d6f636b563341676772656761746f722e736f6ca264697066735822122050836b87d0aeded756dc3a3522e447050d8653e9d1318c3ce18b1f6cb76b485164736f6c63430008180033","linkReferences":{}},"methodIdentifiers":{"decimals()":"313ce567","description()":"7284e416","getAnswer(uint256)":"b5ab58dc","getRoundData(uint80)":"9a6fc8f5","getTimestamp(uint256)":"b633620c","latestAnswer()":"50d25bcd","latestRound()":"668a0f02","latestRoundData()":"feaf968c","latestTimestamp()":"8205bf6a","updateAnswer(int256)":"a87a20ce","updateRoundData(uint80,int256,uint256,uint256)":"4aa2011f","version()":"54fd4d50"},"id":30}